{
  "_format": "hh3-artifact-1",
  "contractName": "NFTMarketplace",
  "sourceName": "contracts/NFT.sol",
  "abi": [
    {
      "inputs": [],
      "stateMutability": "nonpayable",
      "type": "constructor"
    },
    {
      "inputs": [],
      "name": "EBuyFailed",
      "type": "error"
    },
    {
      "inputs": [],
      "name": "EIncorrectPrice",
      "type": "error"
    },
    {
      "inputs": [],
      "name": "EMaxSupplyReached",
      "type": "error"
    },
    {
      "inputs": [
        {
          "internalType": "address",
          "name": "sender",
          "type": "address"
        },
        {
          "internalType": "uint256",
          "name": "tokenId",
          "type": "uint256"
        },
        {
          "internalType": "address",
          "name": "owner",
          "type": "address"
        }
      ],
      "name": "ERC721IncorrectOwner",
      "type": "error"
    },
    {
      "inputs": [
        {
          "internalType": "address",
          "name": "operator",
          "type": "address"
        },
        {
          "internalType": "uint256",
          "name": "tokenId",
          "type": "uint256"
        }
      ],
      "name": "ERC721InsufficientApproval",
      "type": "error"
    },
    {
      "inputs": [
        {
          "internalType": "address",
          "name": "approver",
          "type": "address"
        }
      ],
      "name": "ERC721InvalidApprover",
      "type": "error"
    },
    {
      "inputs": [
        {
          "internalType": "address",
          "name": "operator",
          "type": "address"
        }
      ],
      "name": "ERC721InvalidOperator",
      "type": "error"
    },
    {
      "inputs": [
        {
          "internalType": "address",
          "name": "owner",
          "type": "address"
        }
      ],
      "name": "ERC721InvalidOwner",
      "type": "error"
    },
    {
      "inputs": [
        {
          "internalType": "address",
          "name": "receiver",
          "type": "address"
        }
      ],
      "name": "ERC721InvalidReceiver",
      "type": "error"
    },
    {
      "inputs": [
        {
          "internalType": "address",
          "name": "sender",
          "type": "address"
        }
      ],
      "name": "ERC721InvalidSender",
      "type": "error"
    },
    {
      "inputs": [
        {
          "internalType": "uint256",
          "name": "tokenId",
          "type": "uint256"
        }
      ],
      "name": "ERC721NonexistentToken",
      "type": "error"
    },
    {
      "inputs": [],
      "name": "ETokenIDIsUsed",
      "type": "error"
    },
    {
      "anonymous": false,
      "inputs": [
        {
          "indexed": true,
          "internalType": "address",
          "name": "owner",
          "type": "address"
        },
        {
          "indexed": true,
          "internalType": "address",
          "name": "approved",
          "type": "address"
        },
        {
          "indexed": true,
          "internalType": "uint256",
          "name": "tokenId",
          "type": "uint256"
        }
      ],
      "name": "Approval",
      "type": "event"
    },
    {
      "anonymous": false,
      "inputs": [
        {
          "indexed": true,
          "internalType": "address",
          "name": "owner",
          "type": "address"
        },
        {
          "indexed": true,
          "internalType": "address",
          "name": "operator",
          "type": "address"
        },
        {
          "indexed": false,
          "internalType": "bool",
          "name": "approved",
          "type": "bool"
        }
      ],
      "name": "ApprovalForAll",
      "type": "event"
    },
    {
      "anonymous": false,
      "inputs": [
        {
          "indexed": false,
          "internalType": "uint256",
          "name": "_fromTokenId",
          "type": "uint256"
        },
        {
          "indexed": false,
          "internalType": "uint256",
          "name": "_toTokenId",
          "type": "uint256"
        }
      ],
      "name": "BatchMetadataUpdate",
      "type": "event"
    },
    {
      "anonymous": false,
      "inputs": [
        {
          "indexed": false,
          "internalType": "address",
          "name": "_owner",
          "type": "address"
        },
        {
          "indexed": false,
          "internalType": "uint256",
          "name": "_tokenId",
          "type": "uint256"
        }
      ],
      "name": "EmitBurn",
      "type": "event"
    },
    {
      "anonymous": false,
      "inputs": [
        {
          "indexed": false,
          "internalType": "address",
          "name": "_from",
          "type": "address"
        },
        {
          "indexed": false,
          "internalType": "address",
          "name": "_to",
          "type": "address"
        },
        {
          "indexed": false,
          "internalType": "uint256",
          "name": "_tokenId",
          "type": "uint256"
        }
      ],
      "name": "EmitBuy",
      "type": "event"
    },
    {
      "anonymous": false,
      "inputs": [
        {
          "indexed": false,
          "internalType": "uint256",
          "name": "_prev",
          "type": "uint256"
        },
        {
          "indexed": false,
          "internalType": "uint256",
          "name": "_current",
          "type": "uint256"
        }
      ],
      "name": "EmitMaxSupplyUpdated",
      "type": "event"
    },
    {
      "anonymous": false,
      "inputs": [
        {
          "indexed": false,
          "internalType": "address",
          "name": "_to",
          "type": "address"
        },
        {
          "indexed": false,
          "internalType": "uint256",
          "name": "_tokenId",
          "type": "uint256"
        },
        {
          "indexed": false,
          "internalType": "string",
          "name": "_tokenURI",
          "type": "string"
        }
      ],
      "name": "EmitMint",
      "type": "event"
    },
    {
      "anonymous": false,
      "inputs": [
        {
          "indexed": false,
          "internalType": "address",
          "name": "_owner",
          "type": "address"
        },
        {
          "indexed": false,
          "internalType": "address",
          "name": "_to",
          "type": "address"
        },
        {
          "indexed": false,
          "internalType": "uint256",
          "name": "_tokenId",
          "type": "uint256"
        }
      ],
      "name": "EmitTransfer",
      "type": "event"
    },
    {
      "anonymous": false,
      "inputs": [
        {
          "indexed": false,
          "internalType": "uint256",
          "name": "_tokenId",
          "type": "uint256"
        }
      ],
      "name": "MetadataUpdate",
      "type": "event"
    },
    {
      "anonymous": false,
      "inputs": [
        {
          "indexed": true,
          "internalType": "address",
          "name": "from",
          "type": "address"
        },
        {
          "indexed": true,
          "internalType": "address",
          "name": "to",
          "type": "address"
        },
        {
          "indexed": true,
          "internalType": "uint256",
          "name": "tokenId",
          "type": "uint256"
        }
      ],
      "name": "Transfer",
      "type": "event"
    },
    {
      "inputs": [
        {
          "internalType": "address",
          "name": "to",
          "type": "address"
        },
        {
          "internalType": "uint256",
          "name": "tokenId",
          "type": "uint256"
        }
      ],
      "name": "approve",
      "outputs": [],
      "stateMutability": "nonpayable",
      "type": "function"
    },
    {
      "inputs": [
        {
          "internalType": "address",
          "name": "owner",
          "type": "address"
        }
      ],
      "name": "balanceOf",
      "outputs": [
        {
          "internalType": "uint256",
          "name": "",
          "type": "uint256"
        }
      ],
      "stateMutability": "view",
      "type": "function"
    },
    {
      "inputs": [
        {
          "internalType": "uint256",
          "name": "_tokenId",
          "type": "uint256"
        }
      ],
      "name": "burnNFT",
      "outputs": [],
      "stateMutability": "nonpayable",
      "type": "function"
    },
    {
      "inputs": [
        {
          "internalType": "address",
          "name": "_from",
          "type": "address"
        },
        {
          "internalType": "uint256",
          "name": "_tokenId",
          "type": "uint256"
        }
      ],
      "name": "buyNFT",
      "outputs": [],
      "stateMutability": "payable",
      "type": "function"
    },
    {
      "inputs": [
        {
          "internalType": "uint256",
          "name": "tokenId",
          "type": "uint256"
        }
      ],
      "name": "getApproved",
      "outputs": [
        {
          "internalType": "address",
          "name": "",
          "type": "address"
        }
      ],
      "stateMutability": "view",
      "type": "function"
    },
    {
      "inputs": [],
      "name": "getMaxSupply",
      "outputs": [
        {
          "internalType": "uint256",
          "name": "",
          "type": "uint256"
        }
      ],
      "stateMutability": "view",
      "type": "function"
    },
    {
      "inputs": [],
      "name": "getTotalMintedTokens",
      "outputs": [
        {
          "internalType": "uint256",
          "name": "",
          "type": "uint256"
        }
      ],
      "stateMutability": "view",
      "type": "function"
    },
    {
      "inputs": [
        {
          "internalType": "address",
          "name": "owner",
          "type": "address"
        },
        {
          "internalType": "address",
          "name": "operator",
          "type": "address"
        }
      ],
      "name": "isApprovedForAll",
      "outputs": [
        {
          "internalType": "bool",
          "name": "",
          "type": "bool"
        }
      ],
      "stateMutability": "view",
      "type": "function"
    },
    {
      "inputs": [
        {
          "internalType": "uint256",
          "name": "_tokenId",
          "type": "uint256"
        },
        {
          "internalType": "string",
          "name": "_tokenURI",
          "type": "string"
        },
        {
          "internalType": "uint256",
          "name": "_price",
          "type": "uint256"
        }
      ],
      "name": "mintNFT",
      "outputs": [],
      "stateMutability": "nonpayable",
      "type": "function"
    },
    {
      "inputs": [],
      "name": "name",
      "outputs": [
        {
          "internalType": "string",
          "name": "",
          "type": "string"
        }
      ],
      "stateMutability": "view",
      "type": "function"
    },
    {
      "inputs": [
        {
          "internalType": "uint256",
          "name": "tokenId",
          "type": "uint256"
        }
      ],
      "name": "ownerOf",
      "outputs": [
        {
          "internalType": "address",
          "name": "",
          "type": "address"
        }
      ],
      "stateMutability": "view",
      "type": "function"
    },
    {
      "inputs": [
        {
          "internalType": "address",
          "name": "from",
          "type": "address"
        },
        {
          "internalType": "address",
          "name": "to",
          "type": "address"
        },
        {
          "internalType": "uint256",
          "name": "tokenId",
          "type": "uint256"
        }
      ],
      "name": "safeTransferFrom",
      "outputs": [],
      "stateMutability": "nonpayable",
      "type": "function"
    },
    {
      "inputs": [
        {
          "internalType": "address",
          "name": "from",
          "type": "address"
        },
        {
          "internalType": "address",
          "name": "to",
          "type": "address"
        },
        {
          "internalType": "uint256",
          "name": "tokenId",
          "type": "uint256"
        },
        {
          "internalType": "bytes",
          "name": "data",
          "type": "bytes"
        }
      ],
      "name": "safeTransferFrom",
      "outputs": [],
      "stateMutability": "nonpayable",
      "type": "function"
    },
    {
      "inputs": [
        {
          "internalType": "address",
          "name": "operator",
          "type": "address"
        },
        {
          "internalType": "bool",
          "name": "approved",
          "type": "bool"
        }
      ],
      "name": "setApprovalForAll",
      "outputs": [],
      "stateMutability": "nonpayable",
      "type": "function"
    },
    {
      "inputs": [
        {
          "internalType": "bytes4",
          "name": "interfaceId",
          "type": "bytes4"
        }
      ],
      "name": "supportsInterface",
      "outputs": [
        {
          "internalType": "bool",
          "name": "",
          "type": "bool"
        }
      ],
      "stateMutability": "view",
      "type": "function"
    },
    {
      "inputs": [],
      "name": "symbol",
      "outputs": [
        {
          "internalType": "string",
          "name": "",
          "type": "string"
        }
      ],
      "stateMutability": "view",
      "type": "function"
    },
    {
      "inputs": [
        {
          "internalType": "uint256",
          "name": "tokenId",
          "type": "uint256"
        }
      ],
      "name": "tokenURI",
      "outputs": [
        {
          "internalType": "string",
          "name": "",
          "type": "string"
        }
      ],
      "stateMutability": "view",
      "type": "function"
    },
    {
      "inputs": [
        {
          "internalType": "address",
          "name": "from",
          "type": "address"
        },
        {
          "internalType": "address",
          "name": "to",
          "type": "address"
        },
        {
          "internalType": "uint256",
          "name": "tokenId",
          "type": "uint256"
        }
      ],
      "name": "transferFrom",
      "outputs": [],
      "stateMutability": "nonpayable",
      "type": "function"
    },
    {
      "inputs": [
        {
          "internalType": "address",
          "name": "_to",
          "type": "address"
        },
        {
          "internalType": "uint256",
          "name": "_tokenId",
          "type": "uint256"
        }
      ],
      "name": "transferNFT",
      "outputs": [],
      "stateMutability": "nonpayable",
      "type": "function"
    },
    {
      "inputs": [],
      "name": "updateMaxSupply",
      "outputs": [],
      "stateMutability": "nonpayable",
      "type": "function"
    }
  ],
  "bytecode": "0x608060405234801561000f575f5ffd5b506040518060400160405280600e81526020016d4e46544d61726b6574706c61636560901b8152506040518060400160405280600381526020016213919560ea1b815250815f90816100619190610113565b50600161006e8282610113565b50506064600755506101cd565b634e487b7160e01b5f52604160045260245ffd5b600181811c908216806100a357607f821691505b6020821081036100c157634e487b7160e01b5f52602260045260245ffd5b50919050565b601f82111561010e57805f5260205f20601f840160051c810160208510156100ec5750805b601f840160051c820191505b8181101561010b575f81556001016100f8565b50505b505050565b81516001600160401b0381111561012c5761012c61007b565b6101408161013a845461008f565b846100c7565b6020601f821160018114610172575f831561015b5750848201515b5f19600385901b1c1916600184901b17845561010b565b5f84815260208120601f198516915b828110156101a15787850151825560209485019460019092019101610181565b50848210156101be57868401515f19600387901b60f8161c191681555b50505050600190811b01905550565b6117c6806101da5f395ff3fe60806040526004361061011b575f3560e01c806394ab67fe1161009d578063c87b56dd11610062578063c87b56dd14610309578063e3248d7214610328578063e985e9c51461033c578063f67a769c1461035b578063fbf1343c1461036f575f5ffd5b806394ab67fe1461028557806395d89b41146102a4578063a22cb465146102b8578063a82ba76f146102d7578063b88d4fde146102ea575f5ffd5b80632890e0d7116100e35780632890e0d7146101eb57806342842e0e1461020a5780634c0f38c2146102295780636352211e1461024757806370a0823114610266575f5ffd5b806301ffc9a71461011f57806306fdde0314610153578063081812fc14610174578063095ea7b3146101ab57806323b872dd146101cc575b5f5ffd5b34801561012a575f5ffd5b5061013e610139366004611295565b61038e565b60405190151581526020015b60405180910390f35b34801561015e575f5ffd5b506101676103b8565b60405161014a91906112de565b34801561017f575f5ffd5b5061019361018e3660046112f0565b610447565b6040516001600160a01b03909116815260200161014a565b3480156101b6575f5ffd5b506101ca6101c5366004611322565b61046e565b005b3480156101d7575f5ffd5b506101ca6101e636600461134a565b61047d565b3480156101f6575f5ffd5b506101ca6102053660046112f0565b61050b565b348015610215575f5ffd5b506101ca61022436600461134a565b610572565b348015610234575f5ffd5b506007545b60405190815260200161014a565b348015610252575f5ffd5b506101936102613660046112f0565b610591565b348015610271575f5ffd5b50610239610280366004611384565b61059b565b348015610290575f5ffd5b506101ca61029f366004611322565b6105e0565b3480156102af575f5ffd5b50610167610631565b3480156102c3575f5ffd5b506101ca6102d236600461139d565b610640565b6101ca6102e5366004611322565b61064b565b3480156102f5575f5ffd5b506101ca610304366004611461565b610752565b348015610314575f5ffd5b506101676103233660046112f0565b61076a565b348015610333575f5ffd5b506101ca610875565b348015610347575f5ffd5b5061013e6103563660046114d8565b6108cd565b348015610366575f5ffd5b50600854610239565b34801561037a575f5ffd5b506101ca610389366004611509565b6108fa565b5f6001600160e01b03198216632483248360e11b14806103b257506103b2826109d2565b92915050565b60605f80546103c690611569565b80601f01602080910402602001604051908101604052809291908181526020018280546103f290611569565b801561043d5780601f106104145761010080835404028352916020019161043d565b820191905f5260205f20905b81548152906001019060200180831161042057829003601f168201915b5050505050905090565b5f61045182610a21565b505f828152600460205260409020546001600160a01b03166103b2565b610479828233610a59565b5050565b6001600160a01b0382166104ab57604051633250574960e11b81525f60048201526024015b60405180910390fd5b5f6104b7838333610a66565b9050836001600160a01b0316816001600160a01b031614610505576040516364283d7b60e01b81526001600160a01b03808616600483015260248201849052821660448201526064016104a2565b50505050565b5f61051582610a21565b9050610522813384610b58565b61052b82610bbc565b604080516001600160a01b0383168152602081018490527f809d3bdeab6e22d031b3730db4cd348446433205319dac66c8bf44ddea37bddc91015b60405180910390a15050565b61058c83838360405180602001604052805f815250610752565b505050565b5f6103b282610a21565b5f6001600160a01b0382166105c5576040516322718ad960e21b81525f60048201526024016104a2565b506001600160a01b03165f9081526003602052604090205490565b6105eb338383610572565b604080513381526001600160a01b03841660208201529081018290527f7c587205769d1b309bd686f674d04b4ed2042a3eee53e8f01a0d88a0e4b56b4290606001610566565b6060600180546103c690611569565b610479338383610bf4565b5f61065582610591565b5f8381526009602052604090206001015490915034146106885760405163cfbde8a560e01b815260040160405180910390fd5b5f816001600160a01b0316346040515f6040518083038185875af1925050503d805f81146106d1576040519150601f19603f3d011682016040523d82523d5f602084013e6106d6565b606091505b50509050806106f85760405163746e552160e11b815260040160405180910390fd5b610703843385610c92565b604080516001600160a01b03861681523360208201529081018490527f68cc2a6e5ec9cb229251b3b7c4f8eb49466435bf7b0d24a1152a41cdfb4eb36a9060600160405180910390a150505050565b61075d84848461047d565b6105053385858585610d3f565b606061077582610a21565b505f828152600660205260408120805461078e90611569565b80601f01602080910402602001604051908101604052809291908181526020018280546107ba90611569565b80156108055780601f106107dc57610100808354040283529160200191610805565b820191905f5260205f20905b8154815290600101906020018083116107e857829003601f168201915b505050505090505f61082160408051602081019091525f815290565b905080515f03610832575092915050565b81511561086457808260405160200161084c9291906115b8565b60405160208183030381529060405292505050919050565b61086d84610e67565b949350505050565b60078054906064905f61088883856115e0565b90915550506007546040805183815260208101929092527fbb2360927bc2553a10fd5f6adb2323690200a01095465eb0b937ff35e89811a0910160405180910390a150565b6001600160a01b039182165f90815260056020908152604080832093909416825291909152205460ff1690565b5f8381526009602052604090205460ff16156109295760405163265f075b60e21b815260040160405180910390fd5b6007546008540361094d576040516336d60cff60e11b815260040160405180910390fd5b6109573384610ed8565b6109618383610ef1565b5f838152600960205260408120805460ff19166001908117825501829055600880549161098d836115f3565b91905055507f9bfa5e051e90ae3ee58c254d8837a2abb0cf45073a03ea898b38c43bc17149c63384846040516109c59392919061160b565b60405180910390a1505050565b5f6001600160e01b031982166380ac58cd60e01b1480610a0257506001600160e01b03198216635b5e139f60e01b145b806103b257506301ffc9a760e01b6001600160e01b03198316146103b2565b5f818152600260205260408120546001600160a01b0316806103b257604051637e27328960e01b8152600481018490526024016104a2565b61058c8383836001610f39565b5f828152600260205260408120546001600160a01b0390811690831615610a9257610a92818486610b58565b6001600160a01b03811615610acc57610aad5f855f5f610f39565b6001600160a01b0381165f90815260036020526040902080545f190190555b6001600160a01b03851615610afa576001600160a01b0385165f908152600360205260409020805460010190555b5f8481526002602052604080822080546001600160a01b0319166001600160a01b0389811691821790925591518793918516917fddf252ad1be2c89b69c2b068fc378daa952ba7f163c4a11628f55a4df523b3ef91a4949350505050565b610b6383838361103d565b61058c576001600160a01b038316610b9157604051637e27328960e01b8152600481018290526024016104a2565b60405163177e802f60e01b81526001600160a01b0383166004820152602481018290526044016104a2565b5f610bc85f835f610a66565b90506001600160a01b03811661047957604051637e27328960e01b8152600481018390526024016104a2565b6001600160a01b038216610c2657604051630b61174360e31b81526001600160a01b03831660048201526024016104a2565b6001600160a01b038381165f81815260056020908152604080832094871680845294825291829020805460ff191686151590811790915591519182527f17307eab39ab6107e8899845ad3d59bd9653f200f220920489ca2b5937696c31910160405180910390a3505050565b6001600160a01b038216610cbb57604051633250574960e11b81525f60048201526024016104a2565b5f610cc783835f610a66565b90506001600160a01b038116610cf357604051637e27328960e01b8152600481018390526024016104a2565b836001600160a01b0316816001600160a01b031614610505576040516364283d7b60e01b81526001600160a01b03808616600483015260248201849052821660448201526064016104a2565b6001600160a01b0383163b15610e6057604051630a85bd0160e11b81526001600160a01b0384169063150b7a0290610d8190889088908790879060040161163a565b6020604051808303815f875af1925050508015610dbb575060408051601f3d908101601f19168201909252610db891810190611676565b60015b610e22573d808015610de8576040519150601f19603f3d011682016040523d82523d5f602084013e610ded565b606091505b5080515f03610e1a57604051633250574960e11b81526001600160a01b03851660048201526024016104a2565b805160208201fd5b6001600160e01b03198116630a85bd0160e11b14610e5e57604051633250574960e11b81526001600160a01b03851660048201526024016104a2565b505b5050505050565b6060610e7282610a21565b505f610e8860408051602081019091525f815290565b90505f815111610ea65760405180602001604052805f815250610ed1565b80610eb08461109e565b604051602001610ec19291906115b8565b6040516020818303038152906040525b9392505050565b610479828260405180602001604052805f81525061112e565b5f828152600660205260409020610f0882826116d5565b506040518281527ff8e1a15aba9398e019f0b49df1a4fde98ee17ae345cb5f6b5e2c27f5033e8ce790602001610566565b8080610f4d57506001600160a01b03821615155b1561100e575f610f5c84610a21565b90506001600160a01b03831615801590610f885750826001600160a01b0316816001600160a01b031614155b8015610f9b5750610f9981846108cd565b155b15610fc45760405163a9fbf51f60e01b81526001600160a01b03841660048201526024016104a2565b811561100c5783856001600160a01b0316826001600160a01b03167f8c5be1e5ebec7d5bd14f71427d1e84f3dd0314c0f7b2291e5b200ac8c7c3b92560405160405180910390a45b505b50505f90815260046020526040902080546001600160a01b0319166001600160a01b0392909216919091179055565b5f6001600160a01b0383161580159061086d5750826001600160a01b0316846001600160a01b03161480611076575061107684846108cd565b8061086d5750505f908152600460205260409020546001600160a01b03908116911614919050565b60605f6110aa83611145565b60010190505f8167ffffffffffffffff8111156110c9576110c96113d6565b6040519080825280601f01601f1916602001820160405280156110f3576020820181803683370190505b5090508181016020015b5f19016f181899199a1a9b1b9c1cb0b131b232b360811b600a86061a8153600a85049450846110fd57509392505050565b611138838361121c565b61058c335f858585610d3f565b5f8072184f03e93ff9f4daa797ed6e38ed64bf6a1f0160401b83106111835772184f03e93ff9f4daa797ed6e38ed64bf6a1f0160401b830492506040015b6d04ee2d6d415b85acef810000000083106111af576d04ee2d6d415b85acef8100000000830492506020015b662386f26fc1000083106111cd57662386f26fc10000830492506010015b6305f5e10083106111e5576305f5e100830492506008015b61271083106111f957612710830492506004015b6064831061120b576064830492506002015b600a83106103b25760010192915050565b6001600160a01b03821661124557604051633250574960e11b81525f60048201526024016104a2565b5f61125183835f610a66565b90506001600160a01b0381161561058c576040516339e3563760e11b81525f60048201526024016104a2565b6001600160e01b031981168114611292575f5ffd5b50565b5f602082840312156112a5575f5ffd5b8135610ed18161127d565b5f81518084528060208401602086015e5f602082860101526020601f19601f83011685010191505092915050565b602081525f610ed160208301846112b0565b5f60208284031215611300575f5ffd5b5035919050565b80356001600160a01b038116811461131d575f5ffd5b919050565b5f5f60408385031215611333575f5ffd5b61133c83611307565b946020939093013593505050565b5f5f5f6060848603121561135c575f5ffd5b61136584611307565b925061137360208501611307565b929592945050506040919091013590565b5f60208284031215611394575f5ffd5b610ed182611307565b5f5f604083850312156113ae575f5ffd5b6113b783611307565b9150602083013580151581146113cb575f5ffd5b809150509250929050565b634e487b7160e01b5f52604160045260245ffd5b5f5f67ffffffffffffffff841115611404576114046113d6565b50604051601f19601f85018116603f0116810181811067ffffffffffffffff82111715611433576114336113d6565b60405283815290508082840185101561144a575f5ffd5b838360208301375f60208583010152509392505050565b5f5f5f5f60808587031215611474575f5ffd5b61147d85611307565b935061148b60208601611307565b925060408501359150606085013567ffffffffffffffff8111156114ad575f5ffd5b8501601f810187136114bd575f5ffd5b6114cc878235602084016113ea565b91505092959194509250565b5f5f604083850312156114e9575f5ffd5b6114f283611307565b915061150060208401611307565b90509250929050565b5f5f5f6060848603121561151b575f5ffd5b83359250602084013567ffffffffffffffff811115611538575f5ffd5b8401601f81018613611548575f5ffd5b611557868235602084016113ea565b93969395505050506040919091013590565b600181811c9082168061157d57607f821691505b60208210810361159b57634e487b7160e01b5f52602260045260245ffd5b50919050565b5f81518060208401855e5f93019283525090919050565b5f61086d6115c683866115a1565b846115a1565b634e487b7160e01b5f52601160045260245ffd5b808201808211156103b2576103b26115cc565b5f60018201611604576116046115cc565b5060010190565b60018060a01b0384168152826020820152606060408201525f61163160608301846112b0565b95945050505050565b6001600160a01b03858116825284166020820152604081018390526080606082018190525f9061166c908301846112b0565b9695505050505050565b5f60208284031215611686575f5ffd5b8151610ed18161127d565b601f82111561058c57805f5260205f20601f840160051c810160208510156116b65750805b601f840160051c820191505b81811015610e60575f81556001016116c2565b815167ffffffffffffffff8111156116ef576116ef6113d6565b611703816116fd8454611569565b84611691565b6020601f821160018114611735575f831561171e5750848201515b5f19600385901b1c1916600184901b178455610e60565b5f84815260208120601f198516915b828110156117645787850151825560209485019460019092019101611744565b508482101561178157868401515f19600387901b60f8161c191681555b50505050600190811b0190555056fea26469706673582212203060a8d9a8cda51025cc4c2e4a0097976766d7baa6a4ef8ca924469d5fcbfe7a64736f6c634300081e0033",
  "linkReferences": {},
  "deployedLinkReferences": {},
  "immutableReferences": {},
  "inputSourceName": "project/contracts/NFT.sol",
  "buildInfoId": "solc-0_8_30-8424f87b75dfa65966d17a1301444d78b4f86d6d"
}