{
  "_format": "hh3-artifact-1",
  "contractName": "NFTMarketplace",
  "sourceName": "contracts/NFT.sol",
  "abi": [
    {
      "inputs": [],
      "stateMutability": "nonpayable",
      "type": "constructor"
    },
    {
      "inputs": [
        {
          "internalType": "address",
          "name": "sender",
          "type": "address"
        },
        {
          "internalType": "uint256",
          "name": "tokenId",
          "type": "uint256"
        },
        {
          "internalType": "address",
          "name": "owner",
          "type": "address"
        }
      ],
      "name": "ERC721IncorrectOwner",
      "type": "error"
    },
    {
      "inputs": [
        {
          "internalType": "address",
          "name": "operator",
          "type": "address"
        },
        {
          "internalType": "uint256",
          "name": "tokenId",
          "type": "uint256"
        }
      ],
      "name": "ERC721InsufficientApproval",
      "type": "error"
    },
    {
      "inputs": [
        {
          "internalType": "address",
          "name": "approver",
          "type": "address"
        }
      ],
      "name": "ERC721InvalidApprover",
      "type": "error"
    },
    {
      "inputs": [
        {
          "internalType": "address",
          "name": "operator",
          "type": "address"
        }
      ],
      "name": "ERC721InvalidOperator",
      "type": "error"
    },
    {
      "inputs": [
        {
          "internalType": "address",
          "name": "owner",
          "type": "address"
        }
      ],
      "name": "ERC721InvalidOwner",
      "type": "error"
    },
    {
      "inputs": [
        {
          "internalType": "address",
          "name": "receiver",
          "type": "address"
        }
      ],
      "name": "ERC721InvalidReceiver",
      "type": "error"
    },
    {
      "inputs": [
        {
          "internalType": "address",
          "name": "sender",
          "type": "address"
        }
      ],
      "name": "ERC721InvalidSender",
      "type": "error"
    },
    {
      "inputs": [
        {
          "internalType": "uint256",
          "name": "tokenId",
          "type": "uint256"
        }
      ],
      "name": "ERC721NonexistentToken",
      "type": "error"
    },
    {
      "inputs": [],
      "name": "ETokenIDIsUsed",
      "type": "error"
    },
    {
      "anonymous": false,
      "inputs": [
        {
          "indexed": true,
          "internalType": "address",
          "name": "owner",
          "type": "address"
        },
        {
          "indexed": true,
          "internalType": "address",
          "name": "approved",
          "type": "address"
        },
        {
          "indexed": true,
          "internalType": "uint256",
          "name": "tokenId",
          "type": "uint256"
        }
      ],
      "name": "Approval",
      "type": "event"
    },
    {
      "anonymous": false,
      "inputs": [
        {
          "indexed": true,
          "internalType": "address",
          "name": "owner",
          "type": "address"
        },
        {
          "indexed": true,
          "internalType": "address",
          "name": "operator",
          "type": "address"
        },
        {
          "indexed": false,
          "internalType": "bool",
          "name": "approved",
          "type": "bool"
        }
      ],
      "name": "ApprovalForAll",
      "type": "event"
    },
    {
      "anonymous": false,
      "inputs": [
        {
          "indexed": false,
          "internalType": "uint256",
          "name": "_fromTokenId",
          "type": "uint256"
        },
        {
          "indexed": false,
          "internalType": "uint256",
          "name": "_toTokenId",
          "type": "uint256"
        }
      ],
      "name": "BatchMetadataUpdate",
      "type": "event"
    },
    {
      "anonymous": false,
      "inputs": [
        {
          "indexed": false,
          "internalType": "address",
          "name": "_owner",
          "type": "address"
        },
        {
          "indexed": false,
          "internalType": "uint256",
          "name": "_tokenId",
          "type": "uint256"
        }
      ],
      "name": "EmitBurn",
      "type": "event"
    },
    {
      "anonymous": false,
      "inputs": [
        {
          "indexed": false,
          "internalType": "address",
          "name": "_to",
          "type": "address"
        },
        {
          "indexed": false,
          "internalType": "uint256",
          "name": "_tokenId",
          "type": "uint256"
        },
        {
          "indexed": false,
          "internalType": "string",
          "name": "_tokenURI",
          "type": "string"
        }
      ],
      "name": "EmitMint",
      "type": "event"
    },
    {
      "anonymous": false,
      "inputs": [
        {
          "indexed": false,
          "internalType": "uint256",
          "name": "_tokenId",
          "type": "uint256"
        }
      ],
      "name": "MetadataUpdate",
      "type": "event"
    },
    {
      "anonymous": false,
      "inputs": [
        {
          "indexed": true,
          "internalType": "address",
          "name": "from",
          "type": "address"
        },
        {
          "indexed": true,
          "internalType": "address",
          "name": "to",
          "type": "address"
        },
        {
          "indexed": true,
          "internalType": "uint256",
          "name": "tokenId",
          "type": "uint256"
        }
      ],
      "name": "Transfer",
      "type": "event"
    },
    {
      "inputs": [
        {
          "internalType": "address",
          "name": "to",
          "type": "address"
        },
        {
          "internalType": "uint256",
          "name": "tokenId",
          "type": "uint256"
        }
      ],
      "name": "approve",
      "outputs": [],
      "stateMutability": "nonpayable",
      "type": "function"
    },
    {
      "inputs": [
        {
          "internalType": "address",
          "name": "owner",
          "type": "address"
        }
      ],
      "name": "balanceOf",
      "outputs": [
        {
          "internalType": "uint256",
          "name": "",
          "type": "uint256"
        }
      ],
      "stateMutability": "view",
      "type": "function"
    },
    {
      "inputs": [
        {
          "internalType": "uint256",
          "name": "_tokenId",
          "type": "uint256"
        }
      ],
      "name": "burnNFT",
      "outputs": [],
      "stateMutability": "nonpayable",
      "type": "function"
    },
    {
      "inputs": [
        {
          "internalType": "uint256",
          "name": "tokenId",
          "type": "uint256"
        }
      ],
      "name": "getApproved",
      "outputs": [
        {
          "internalType": "address",
          "name": "",
          "type": "address"
        }
      ],
      "stateMutability": "view",
      "type": "function"
    },
    {
      "inputs": [
        {
          "internalType": "address",
          "name": "owner",
          "type": "address"
        },
        {
          "internalType": "address",
          "name": "operator",
          "type": "address"
        }
      ],
      "name": "isApprovedForAll",
      "outputs": [
        {
          "internalType": "bool",
          "name": "",
          "type": "bool"
        }
      ],
      "stateMutability": "view",
      "type": "function"
    },
    {
      "inputs": [
        {
          "internalType": "address",
          "name": "_to",
          "type": "address"
        },
        {
          "internalType": "uint256",
          "name": "_tokenId",
          "type": "uint256"
        },
        {
          "internalType": "string",
          "name": "_tokenURI",
          "type": "string"
        }
      ],
      "name": "mintNFT",
      "outputs": [],
      "stateMutability": "nonpayable",
      "type": "function"
    },
    {
      "inputs": [],
      "name": "name",
      "outputs": [
        {
          "internalType": "string",
          "name": "",
          "type": "string"
        }
      ],
      "stateMutability": "view",
      "type": "function"
    },
    {
      "inputs": [
        {
          "internalType": "uint256",
          "name": "tokenId",
          "type": "uint256"
        }
      ],
      "name": "ownerOf",
      "outputs": [
        {
          "internalType": "address",
          "name": "",
          "type": "address"
        }
      ],
      "stateMutability": "view",
      "type": "function"
    },
    {
      "inputs": [
        {
          "internalType": "address",
          "name": "from",
          "type": "address"
        },
        {
          "internalType": "address",
          "name": "to",
          "type": "address"
        },
        {
          "internalType": "uint256",
          "name": "tokenId",
          "type": "uint256"
        }
      ],
      "name": "safeTransferFrom",
      "outputs": [],
      "stateMutability": "nonpayable",
      "type": "function"
    },
    {
      "inputs": [
        {
          "internalType": "address",
          "name": "from",
          "type": "address"
        },
        {
          "internalType": "address",
          "name": "to",
          "type": "address"
        },
        {
          "internalType": "uint256",
          "name": "tokenId",
          "type": "uint256"
        },
        {
          "internalType": "bytes",
          "name": "data",
          "type": "bytes"
        }
      ],
      "name": "safeTransferFrom",
      "outputs": [],
      "stateMutability": "nonpayable",
      "type": "function"
    },
    {
      "inputs": [
        {
          "internalType": "address",
          "name": "operator",
          "type": "address"
        },
        {
          "internalType": "bool",
          "name": "approved",
          "type": "bool"
        }
      ],
      "name": "setApprovalForAll",
      "outputs": [],
      "stateMutability": "nonpayable",
      "type": "function"
    },
    {
      "inputs": [
        {
          "internalType": "bytes4",
          "name": "interfaceId",
          "type": "bytes4"
        }
      ],
      "name": "supportsInterface",
      "outputs": [
        {
          "internalType": "bool",
          "name": "",
          "type": "bool"
        }
      ],
      "stateMutability": "view",
      "type": "function"
    },
    {
      "inputs": [],
      "name": "symbol",
      "outputs": [
        {
          "internalType": "string",
          "name": "",
          "type": "string"
        }
      ],
      "stateMutability": "view",
      "type": "function"
    },
    {
      "inputs": [
        {
          "internalType": "uint256",
          "name": "tokenId",
          "type": "uint256"
        }
      ],
      "name": "tokenURI",
      "outputs": [
        {
          "internalType": "string",
          "name": "",
          "type": "string"
        }
      ],
      "stateMutability": "view",
      "type": "function"
    },
    {
      "inputs": [
        {
          "internalType": "address",
          "name": "from",
          "type": "address"
        },
        {
          "internalType": "address",
          "name": "to",
          "type": "address"
        },
        {
          "internalType": "uint256",
          "name": "tokenId",
          "type": "uint256"
        }
      ],
      "name": "transferFrom",
      "outputs": [],
      "stateMutability": "nonpayable",
      "type": "function"
    }
  ],
  "bytecode": "0x608060405234801561000f575f5ffd5b506040518060400160405280600e81526020016d4e46544d61726b6574706c61636560901b8152506040518060400160405280600381526020016213919560ea1b815250815f9081610061919061010e565b50600161006e828261010e565b5050506101c8565b634e487b7160e01b5f52604160045260245ffd5b600181811c9082168061009e57607f821691505b6020821081036100bc57634e487b7160e01b5f52602260045260245ffd5b50919050565b601f82111561010957805f5260205f20601f840160051c810160208510156100e75750805b601f840160051c820191505b81811015610106575f81556001016100f3565b50505b505050565b81516001600160401b0381111561012757610127610076565b61013b81610135845461008a565b846100c2565b6020601f82116001811461016d575f83156101565750848201515b5f19600385901b1c1916600184901b178455610106565b5f84815260208120601f198516915b8281101561019c578785015182556020948501946001909201910161017c565b50848210156101b957868401515f19600387901b60f8161c191681555b50505050600190811b01905550565b6113ab806101d55f395ff3fe608060405234801561000f575f5ffd5b50600436106100f0575f3560e01c806342842e0e11610093578063a22cb46511610063578063a22cb465146101f9578063b88d4fde1461020c578063c87b56dd1461021f578063e985e9c514610232575f5ffd5b806342842e0e146101aa5780636352211e146101bd57806370a08231146101d057806395d89b41146101f1575f5ffd5b8063095ea7b3116100ce578063095ea7b31461015c5780631e5769121461017157806323b872dd146101845780632890e0d714610197575f5ffd5b806301ffc9a7146100f457806306fdde031461011c578063081812fc14610131575b5f5ffd5b610107610102366004610eb3565b610245565b60405190151581526020015b60405180910390f35b61012461026f565b6040516101139190610efc565b61014461013f366004610f0e565b6102fe565b6040516001600160a01b039091168152602001610113565b61016f61016a366004610f40565b610325565b005b61016f61017f366004610ff3565b610334565b61016f610192366004611059565b6103d0565b61016f6101a5366004610f0e565b61045e565b61016f6101b8366004611059565b6104c5565b6101446101cb366004610f0e565b6104e4565b6101e36101de366004611093565b6104ee565b604051908152602001610113565b610124610533565b61016f6102073660046110ac565b610542565b61016f61021a3660046110e5565b61054d565b61012461022d366004610f0e565b610565565b61010761024036600461115c565b610670565b5f6001600160e01b03198216632483248360e11b148061026957506102698261069d565b92915050565b60605f805461027d9061118d565b80601f01602080910402602001604051908101604052809291908181526020018280546102a99061118d565b80156102f45780601f106102cb576101008083540402835291602001916102f4565b820191905f5260205f20905b8154815290600101906020018083116102d757829003601f168201915b5050505050905090565b5f610308826106ec565b505f828152600460205260409020546001600160a01b0316610269565b610330828233610724565b5050565b5f8281526007602052604090205460ff16156103635760405163265f075b60e21b815260040160405180910390fd5b61036d8383610731565b610377828261074a565b5f8281526007602052604090819020805460ff19166001179055517f9bfa5e051e90ae3ee58c254d8837a2abb0cf45073a03ea898b38c43bc17149c6906103c3908590859085906111c5565b60405180910390a1505050565b6001600160a01b0382166103fe57604051633250574960e11b81525f60048201526024015b60405180910390fd5b5f61040a838333610792565b9050836001600160a01b0316816001600160a01b031614610458576040516364283d7b60e01b81526001600160a01b03808616600483015260248201849052821660448201526064016103f5565b50505050565b5f610468826106ec565b9050610475813384610884565b61047e826108e8565b604080516001600160a01b0383168152602081018490527f809d3bdeab6e22d031b3730db4cd348446433205319dac66c8bf44ddea37bddc91015b60405180910390a15050565b6104df83838360405180602001604052805f81525061054d565b505050565b5f610269826106ec565b5f6001600160a01b038216610518576040516322718ad960e21b81525f60048201526024016103f5565b506001600160a01b03165f9081526003602052604090205490565b60606001805461027d9061118d565b610330338383610920565b6105588484846103d0565b61045833858585856109be565b6060610570826106ec565b505f82815260066020526040812080546105899061118d565b80601f01602080910402602001604051908101604052809291908181526020018280546105b59061118d565b80156106005780601f106105d757610100808354040283529160200191610600565b820191905f5260205f20905b8154815290600101906020018083116105e357829003601f168201915b505050505090505f61061c60408051602081019091525f815290565b905080515f0361062d575092915050565b81511561065f57808260405160200161064792919061120b565b60405160208183030381529060405292505050919050565b61066884610ae6565b949350505050565b6001600160a01b039182165f90815260056020908152604080832093909416825291909152205460ff1690565b5f6001600160e01b031982166380ac58cd60e01b14806106cd57506001600160e01b03198216635b5e139f60e01b145b8061026957506301ffc9a760e01b6001600160e01b0319831614610269565b5f818152600260205260408120546001600160a01b03168061026957604051637e27328960e01b8152600481018490526024016103f5565b6104df8383836001610b57565b610330828260405180602001604052805f815250610c5b565b5f8281526006602052604090206107618282611263565b506040518281527ff8e1a15aba9398e019f0b49df1a4fde98ee17ae345cb5f6b5e2c27f5033e8ce7906020016104b9565b5f828152600260205260408120546001600160a01b03908116908316156107be576107be818486610884565b6001600160a01b038116156107f8576107d95f855f5f610b57565b6001600160a01b0381165f90815260036020526040902080545f190190555b6001600160a01b03851615610826576001600160a01b0385165f908152600360205260409020805460010190555b5f8481526002602052604080822080546001600160a01b0319166001600160a01b0389811691821790925591518793918516917fddf252ad1be2c89b69c2b068fc378daa952ba7f163c4a11628f55a4df523b3ef91a4949350505050565b61088f838383610c72565b6104df576001600160a01b0383166108bd57604051637e27328960e01b8152600481018290526024016103f5565b60405163177e802f60e01b81526001600160a01b0383166004820152602481018290526044016103f5565b5f6108f45f835f610792565b90506001600160a01b03811661033057604051637e27328960e01b8152600481018390526024016103f5565b6001600160a01b03821661095257604051630b61174360e31b81526001600160a01b03831660048201526024016103f5565b6001600160a01b038381165f81815260056020908152604080832094871680845294825291829020805460ff191686151590811790915591519182527f17307eab39ab6107e8899845ad3d59bd9653f200f220920489ca2b5937696c31910160405180910390a3505050565b6001600160a01b0383163b15610adf57604051630a85bd0160e11b81526001600160a01b0384169063150b7a0290610a0090889088908790879060040161131e565b6020604051808303815f875af1925050508015610a3a575060408051601f3d908101601f19168201909252610a379181019061135a565b60015b610aa1573d808015610a67576040519150601f19603f3d011682016040523d82523d5f602084013e610a6c565b606091505b5080515f03610a9957604051633250574960e11b81526001600160a01b03851660048201526024016103f5565b805160208201fd5b6001600160e01b03198116630a85bd0160e11b14610add57604051633250574960e11b81526001600160a01b03851660048201526024016103f5565b505b5050505050565b6060610af1826106ec565b505f610b0760408051602081019091525f815290565b90505f815111610b255760405180602001604052805f815250610b50565b80610b2f84610cd3565b604051602001610b4092919061120b565b6040516020818303038152906040525b9392505050565b8080610b6b57506001600160a01b03821615155b15610c2c575f610b7a846106ec565b90506001600160a01b03831615801590610ba65750826001600160a01b0316816001600160a01b031614155b8015610bb95750610bb78184610670565b155b15610be25760405163a9fbf51f60e01b81526001600160a01b03841660048201526024016103f5565b8115610c2a5783856001600160a01b0316826001600160a01b03167f8c5be1e5ebec7d5bd14f71427d1e84f3dd0314c0f7b2291e5b200ac8c7c3b92560405160405180910390a45b505b50505f90815260046020526040902080546001600160a01b0319166001600160a01b0392909216919091179055565b610c658383610d63565b6104df335f8585856109be565b5f6001600160a01b038316158015906106685750826001600160a01b0316846001600160a01b03161480610cab5750610cab8484610670565b806106685750505f908152600460205260409020546001600160a01b03908116911614919050565b60605f610cdf83610dc4565b60010190505f8167ffffffffffffffff811115610cfe57610cfe610f68565b6040519080825280601f01601f191660200182016040528015610d28576020820181803683370190505b5090508181016020015b5f19016f181899199a1a9b1b9c1cb0b131b232b360811b600a86061a8153600a8504945084610d3257509392505050565b6001600160a01b038216610d8c57604051633250574960e11b81525f60048201526024016103f5565b5f610d9883835f610792565b90506001600160a01b038116156104df576040516339e3563760e11b81525f60048201526024016103f5565b5f8072184f03e93ff9f4daa797ed6e38ed64bf6a1f0160401b8310610e025772184f03e93ff9f4daa797ed6e38ed64bf6a1f0160401b830492506040015b6d04ee2d6d415b85acef81000000008310610e2e576d04ee2d6d415b85acef8100000000830492506020015b662386f26fc100008310610e4c57662386f26fc10000830492506010015b6305f5e1008310610e64576305f5e100830492506008015b6127108310610e7857612710830492506004015b60648310610e8a576064830492506002015b600a83106102695760010192915050565b6001600160e01b031981168114610eb0575f5ffd5b50565b5f60208284031215610ec3575f5ffd5b8135610b5081610e9b565b5f81518084528060208401602086015e5f602082860101526020601f19601f83011685010191505092915050565b602081525f610b506020830184610ece565b5f60208284031215610f1e575f5ffd5b5035919050565b80356001600160a01b0381168114610f3b575f5ffd5b919050565b5f5f60408385031215610f51575f5ffd5b610f5a83610f25565b946020939093013593505050565b634e487b7160e01b5f52604160045260245ffd5b5f5f67ffffffffffffffff841115610f9657610f96610f68565b50604051601f19601f85018116603f0116810181811067ffffffffffffffff82111715610fc557610fc5610f68565b604052838152905080828401851015610fdc575f5ffd5b838360208301375f60208583010152509392505050565b5f5f5f60608486031215611005575f5ffd5b61100e84610f25565b925060208401359150604084013567ffffffffffffffff811115611030575f5ffd5b8401601f81018613611040575f5ffd5b61104f86823560208401610f7c565b9150509250925092565b5f5f5f6060848603121561106b575f5ffd5b61107484610f25565b925061108260208501610f25565b929592945050506040919091013590565b5f602082840312156110a3575f5ffd5b610b5082610f25565b5f5f604083850312156110bd575f5ffd5b6110c683610f25565b9150602083013580151581146110da575f5ffd5b809150509250929050565b5f5f5f5f608085870312156110f8575f5ffd5b61110185610f25565b935061110f60208601610f25565b925060408501359150606085013567ffffffffffffffff811115611131575f5ffd5b8501601f81018713611141575f5ffd5b61115087823560208401610f7c565b91505092959194509250565b5f5f6040838503121561116d575f5ffd5b61117683610f25565b915061118460208401610f25565b90509250929050565b600181811c908216806111a157607f821691505b6020821081036111bf57634e487b7160e01b5f52602260045260245ffd5b50919050565b60018060a01b0384168152826020820152606060408201525f6111eb6060830184610ece565b95945050505050565b5f81518060208401855e5f93019283525090919050565b5f61066861121983866111f4565b846111f4565b601f8211156104df57805f5260205f20601f840160051c810160208510156112445750805b601f840160051c820191505b81811015610adf575f8155600101611250565b815167ffffffffffffffff81111561127d5761127d610f68565b6112918161128b845461118d565b8461121f565b6020601f8211600181146112c3575f83156112ac5750848201515b5f19600385901b1c1916600184901b178455610adf565b5f84815260208120601f198516915b828110156112f257878501518255602094850194600190920191016112d2565b508482101561130f57868401515f19600387901b60f8161c191681555b50505050600190811b01905550565b6001600160a01b03858116825284166020820152604081018390526080606082018190525f9061135090830184610ece565b9695505050505050565b5f6020828403121561136a575f5ffd5b8151610b5081610e9b56fea2646970667358221220d21b1e841006dea2cf9dcdf7b05f9e0edcd3ffb5efb433e1ac5f4529d223464264736f6c634300081e0033",
  "linkReferences": {},
  "deployedLinkReferences": {},
  "immutableReferences": {},
  "inputSourceName": "project/contracts/NFT.sol",
  "buildInfoId": "solc-0_8_30-4fc5ac8b5446c522c14917c283e24fe87d431339"
}