{
  "_format": "hh3-artifact-1",
  "contractName": "NFTMarketplace",
  "sourceName": "contracts/NFT.sol",
  "abi": [
    {
      "inputs": [],
      "stateMutability": "nonpayable",
      "type": "constructor"
    },
    {
      "inputs": [
        {
          "internalType": "address",
          "name": "sender",
          "type": "address"
        },
        {
          "internalType": "uint256",
          "name": "tokenId",
          "type": "uint256"
        },
        {
          "internalType": "address",
          "name": "owner",
          "type": "address"
        }
      ],
      "name": "ERC721IncorrectOwner",
      "type": "error"
    },
    {
      "inputs": [
        {
          "internalType": "address",
          "name": "operator",
          "type": "address"
        },
        {
          "internalType": "uint256",
          "name": "tokenId",
          "type": "uint256"
        }
      ],
      "name": "ERC721InsufficientApproval",
      "type": "error"
    },
    {
      "inputs": [
        {
          "internalType": "address",
          "name": "approver",
          "type": "address"
        }
      ],
      "name": "ERC721InvalidApprover",
      "type": "error"
    },
    {
      "inputs": [
        {
          "internalType": "address",
          "name": "operator",
          "type": "address"
        }
      ],
      "name": "ERC721InvalidOperator",
      "type": "error"
    },
    {
      "inputs": [
        {
          "internalType": "address",
          "name": "owner",
          "type": "address"
        }
      ],
      "name": "ERC721InvalidOwner",
      "type": "error"
    },
    {
      "inputs": [
        {
          "internalType": "address",
          "name": "receiver",
          "type": "address"
        }
      ],
      "name": "ERC721InvalidReceiver",
      "type": "error"
    },
    {
      "inputs": [
        {
          "internalType": "address",
          "name": "sender",
          "type": "address"
        }
      ],
      "name": "ERC721InvalidSender",
      "type": "error"
    },
    {
      "inputs": [
        {
          "internalType": "uint256",
          "name": "tokenId",
          "type": "uint256"
        }
      ],
      "name": "ERC721NonexistentToken",
      "type": "error"
    },
    {
      "anonymous": false,
      "inputs": [
        {
          "indexed": true,
          "internalType": "address",
          "name": "owner",
          "type": "address"
        },
        {
          "indexed": true,
          "internalType": "address",
          "name": "approved",
          "type": "address"
        },
        {
          "indexed": true,
          "internalType": "uint256",
          "name": "tokenId",
          "type": "uint256"
        }
      ],
      "name": "Approval",
      "type": "event"
    },
    {
      "anonymous": false,
      "inputs": [
        {
          "indexed": true,
          "internalType": "address",
          "name": "owner",
          "type": "address"
        },
        {
          "indexed": true,
          "internalType": "address",
          "name": "operator",
          "type": "address"
        },
        {
          "indexed": false,
          "internalType": "bool",
          "name": "approved",
          "type": "bool"
        }
      ],
      "name": "ApprovalForAll",
      "type": "event"
    },
    {
      "anonymous": false,
      "inputs": [
        {
          "indexed": false,
          "internalType": "uint256",
          "name": "_fromTokenId",
          "type": "uint256"
        },
        {
          "indexed": false,
          "internalType": "uint256",
          "name": "_toTokenId",
          "type": "uint256"
        }
      ],
      "name": "BatchMetadataUpdate",
      "type": "event"
    },
    {
      "anonymous": false,
      "inputs": [
        {
          "indexed": false,
          "internalType": "address",
          "name": "_owner",
          "type": "address"
        },
        {
          "indexed": false,
          "internalType": "uint256",
          "name": "_tokenId",
          "type": "uint256"
        }
      ],
      "name": "EmitBurn",
      "type": "event"
    },
    {
      "anonymous": false,
      "inputs": [
        {
          "indexed": false,
          "internalType": "address",
          "name": "_to",
          "type": "address"
        },
        {
          "indexed": false,
          "internalType": "uint256",
          "name": "_tokenId",
          "type": "uint256"
        },
        {
          "indexed": false,
          "internalType": "string",
          "name": "_tokenURI",
          "type": "string"
        }
      ],
      "name": "EmitMint",
      "type": "event"
    },
    {
      "anonymous": false,
      "inputs": [
        {
          "indexed": false,
          "internalType": "uint256",
          "name": "_tokenId",
          "type": "uint256"
        }
      ],
      "name": "MetadataUpdate",
      "type": "event"
    },
    {
      "anonymous": false,
      "inputs": [
        {
          "indexed": true,
          "internalType": "address",
          "name": "from",
          "type": "address"
        },
        {
          "indexed": true,
          "internalType": "address",
          "name": "to",
          "type": "address"
        },
        {
          "indexed": true,
          "internalType": "uint256",
          "name": "tokenId",
          "type": "uint256"
        }
      ],
      "name": "Transfer",
      "type": "event"
    },
    {
      "inputs": [
        {
          "internalType": "address",
          "name": "to",
          "type": "address"
        },
        {
          "internalType": "uint256",
          "name": "tokenId",
          "type": "uint256"
        }
      ],
      "name": "approve",
      "outputs": [],
      "stateMutability": "nonpayable",
      "type": "function"
    },
    {
      "inputs": [
        {
          "internalType": "address",
          "name": "owner",
          "type": "address"
        }
      ],
      "name": "balanceOf",
      "outputs": [
        {
          "internalType": "uint256",
          "name": "",
          "type": "uint256"
        }
      ],
      "stateMutability": "view",
      "type": "function"
    },
    {
      "inputs": [
        {
          "internalType": "uint256",
          "name": "_tokenId",
          "type": "uint256"
        }
      ],
      "name": "burnNFT",
      "outputs": [],
      "stateMutability": "nonpayable",
      "type": "function"
    },
    {
      "inputs": [
        {
          "internalType": "uint256",
          "name": "tokenId",
          "type": "uint256"
        }
      ],
      "name": "getApproved",
      "outputs": [
        {
          "internalType": "address",
          "name": "",
          "type": "address"
        }
      ],
      "stateMutability": "view",
      "type": "function"
    },
    {
      "inputs": [
        {
          "internalType": "address",
          "name": "owner",
          "type": "address"
        },
        {
          "internalType": "address",
          "name": "operator",
          "type": "address"
        }
      ],
      "name": "isApprovedForAll",
      "outputs": [
        {
          "internalType": "bool",
          "name": "",
          "type": "bool"
        }
      ],
      "stateMutability": "view",
      "type": "function"
    },
    {
      "inputs": [
        {
          "internalType": "address",
          "name": "_to",
          "type": "address"
        },
        {
          "internalType": "string",
          "name": "_tokenURI",
          "type": "string"
        }
      ],
      "name": "mintNFT",
      "outputs": [],
      "stateMutability": "nonpayable",
      "type": "function"
    },
    {
      "inputs": [],
      "name": "name",
      "outputs": [
        {
          "internalType": "string",
          "name": "",
          "type": "string"
        }
      ],
      "stateMutability": "view",
      "type": "function"
    },
    {
      "inputs": [
        {
          "internalType": "uint256",
          "name": "tokenId",
          "type": "uint256"
        }
      ],
      "name": "ownerOf",
      "outputs": [
        {
          "internalType": "address",
          "name": "",
          "type": "address"
        }
      ],
      "stateMutability": "view",
      "type": "function"
    },
    {
      "inputs": [
        {
          "internalType": "address",
          "name": "from",
          "type": "address"
        },
        {
          "internalType": "address",
          "name": "to",
          "type": "address"
        },
        {
          "internalType": "uint256",
          "name": "tokenId",
          "type": "uint256"
        }
      ],
      "name": "safeTransferFrom",
      "outputs": [],
      "stateMutability": "nonpayable",
      "type": "function"
    },
    {
      "inputs": [
        {
          "internalType": "address",
          "name": "from",
          "type": "address"
        },
        {
          "internalType": "address",
          "name": "to",
          "type": "address"
        },
        {
          "internalType": "uint256",
          "name": "tokenId",
          "type": "uint256"
        },
        {
          "internalType": "bytes",
          "name": "data",
          "type": "bytes"
        }
      ],
      "name": "safeTransferFrom",
      "outputs": [],
      "stateMutability": "nonpayable",
      "type": "function"
    },
    {
      "inputs": [
        {
          "internalType": "address",
          "name": "operator",
          "type": "address"
        },
        {
          "internalType": "bool",
          "name": "approved",
          "type": "bool"
        }
      ],
      "name": "setApprovalForAll",
      "outputs": [],
      "stateMutability": "nonpayable",
      "type": "function"
    },
    {
      "inputs": [
        {
          "internalType": "bytes4",
          "name": "interfaceId",
          "type": "bytes4"
        }
      ],
      "name": "supportsInterface",
      "outputs": [
        {
          "internalType": "bool",
          "name": "",
          "type": "bool"
        }
      ],
      "stateMutability": "view",
      "type": "function"
    },
    {
      "inputs": [],
      "name": "symbol",
      "outputs": [
        {
          "internalType": "string",
          "name": "",
          "type": "string"
        }
      ],
      "stateMutability": "view",
      "type": "function"
    },
    {
      "inputs": [
        {
          "internalType": "uint256",
          "name": "tokenId",
          "type": "uint256"
        }
      ],
      "name": "tokenURI",
      "outputs": [
        {
          "internalType": "string",
          "name": "",
          "type": "string"
        }
      ],
      "stateMutability": "view",
      "type": "function"
    },
    {
      "inputs": [
        {
          "internalType": "address",
          "name": "from",
          "type": "address"
        },
        {
          "internalType": "address",
          "name": "to",
          "type": "address"
        },
        {
          "internalType": "uint256",
          "name": "tokenId",
          "type": "uint256"
        }
      ],
      "name": "transferFrom",
      "outputs": [],
      "stateMutability": "nonpayable",
      "type": "function"
    }
  ],
  "bytecode": "0x608060405234801561000f575f5ffd5b506040518060400160405280600e81526020016d4e46544d61726b6574706c61636560901b8152506040518060400160405280600381526020016213919560ea1b815250815f9081610061919061010e565b50600161006e828261010e565b5050506101c8565b634e487b7160e01b5f52604160045260245ffd5b600181811c9082168061009e57607f821691505b6020821081036100bc57634e487b7160e01b5f52602260045260245ffd5b50919050565b601f82111561010957805f5260205f20601f840160051c810160208510156100e75750805b601f840160051c820191505b81811015610106575f81556001016100f3565b50505b505050565b81516001600160401b0381111561012757610127610076565b61013b81610135845461008a565b846100c2565b6020601f82116001811461016d575f83156101565750848201515b5f19600385901b1c1916600184901b178455610106565b5f84815260208120601f198516915b8281101561019c578785015182556020948501946001909201910161017c565b50848210156101b957868401515f19600387901b60f8161c191681555b50505050600190811b01905550565b611398806101d55f395ff3fe608060405234801561000f575f5ffd5b50600436106100f0575f3560e01c80636352211e11610093578063b88d4fde11610063578063b88d4fde146101f9578063c87b56dd1461020c578063e985e9c51461021f578063eacabe1414610232575f5ffd5b80636352211e146101aa57806370a08231146101bd57806395d89b41146101de578063a22cb465146101e6575f5ffd5b8063095ea7b3116100ce578063095ea7b31461015c57806323b872dd146101715780632890e0d71461018457806342842e0e14610197575f5ffd5b806301ffc9a7146100f457806306fdde031461011c578063081812fc14610131575b5f5ffd5b610107610102366004610e84565b610245565b60405190151581526020015b60405180910390f35b61012461026f565b6040516101139190610ecd565b61014461013f366004610edf565b6102fe565b6040516001600160a01b039091168152602001610113565b61016f61016a366004610f11565b610325565b005b61016f61017f366004610f39565b610334565b61016f610192366004610edf565b6103c2565b61016f6101a5366004610f39565b610429565b6101446101b8366004610edf565b610448565b6101d06101cb366004610f73565b610452565b604051908152602001610113565b610124610497565b61016f6101f4366004610f8c565b6104a6565b61016f610207366004611050565b6104b1565b61012461021a366004610edf565b6104c9565b61010761022d3660046110c7565b6105d4565b61016f6102403660046110f8565b610601565b5f6001600160e01b03198216632483248360e11b148061026957506102698261066e565b92915050565b60605f805461027d90611156565b80601f01602080910402602001604051908101604052809291908181526020018280546102a990611156565b80156102f45780601f106102cb576101008083540402835291602001916102f4565b820191905f5260205f20905b8154815290600101906020018083116102d757829003601f168201915b5050505050905090565b5f610308826106bd565b505f828152600460205260409020546001600160a01b0316610269565b6103308282336106f5565b5050565b6001600160a01b03821661036257604051633250574960e11b81525f60048201526024015b60405180910390fd5b5f61036e838333610702565b9050836001600160a01b0316816001600160a01b0316146103bc576040516364283d7b60e01b81526001600160a01b0380861660048301526024820184905282166044820152606401610359565b50505050565b5f6103cc826106bd565b90506103d98133846107f4565b6103e282610858565b604080516001600160a01b0383168152602081018490527f809d3bdeab6e22d031b3730db4cd348446433205319dac66c8bf44ddea37bddc91015b60405180910390a15050565b61044383838360405180602001604052805f8152506104b1565b505050565b5f610269826106bd565b5f6001600160a01b03821661047c576040516322718ad960e21b81525f6004820152602401610359565b506001600160a01b03165f9081526003602052604090205490565b60606001805461027d90611156565b610330338383610890565b6104bc848484610334565b6103bc338585858561092e565b60606104d4826106bd565b505f82815260066020526040812080546104ed90611156565b80601f016020809104026020016040519081016040528092919081815260200182805461051990611156565b80156105645780601f1061053b57610100808354040283529160200191610564565b820191905f5260205f20905b81548152906001019060200180831161054757829003601f168201915b505050505090505f61058060408051602081019091525f815290565b905080515f03610591575092915050565b8151156105c35780826040516020016105ab9291906111a5565b60405160208183030381529060405292505050919050565b6105cc84610a56565b949350505050565b6001600160a01b039182165f90815260056020908152604080832093909416825291909152205460ff1690565b61060d82600754610ac7565b61061960075482610ae0565b7f9bfa5e051e90ae3ee58c254d8837a2abb0cf45073a03ea898b38c43bc17149c6826007548360405161064e939291906111b9565b60405180910390a160078054905f610665836111e8565b91905055505050565b5f6001600160e01b031982166380ac58cd60e01b148061069e57506001600160e01b03198216635b5e139f60e01b145b8061026957506301ffc9a760e01b6001600160e01b0319831614610269565b5f818152600260205260408120546001600160a01b03168061026957604051637e27328960e01b815260048101849052602401610359565b6104438383836001610b28565b5f828152600260205260408120546001600160a01b039081169083161561072e5761072e8184866107f4565b6001600160a01b03811615610768576107495f855f5f610b28565b6001600160a01b0381165f90815260036020526040902080545f190190555b6001600160a01b03851615610796576001600160a01b0385165f908152600360205260409020805460010190555b5f8481526002602052604080822080546001600160a01b0319166001600160a01b0389811691821790925591518793918516917fddf252ad1be2c89b69c2b068fc378daa952ba7f163c4a11628f55a4df523b3ef91a4949350505050565b6107ff838383610c2c565b610443576001600160a01b03831661082d57604051637e27328960e01b815260048101829052602401610359565b60405163177e802f60e01b81526001600160a01b038316600482015260248101829052604401610359565b5f6108645f835f610702565b90506001600160a01b03811661033057604051637e27328960e01b815260048101839052602401610359565b6001600160a01b0382166108c257604051630b61174360e31b81526001600160a01b0383166004820152602401610359565b6001600160a01b038381165f81815260056020908152604080832094871680845294825291829020805460ff191686151590811790915591519182527f17307eab39ab6107e8899845ad3d59bd9653f200f220920489ca2b5937696c31910160405180910390a3505050565b6001600160a01b0383163b15610a4f57604051630a85bd0160e11b81526001600160a01b0384169063150b7a029061097090889088908790879060040161120c565b6020604051808303815f875af19250505080156109aa575060408051601f3d908101601f191682019092526109a791810190611248565b60015b610a11573d8080156109d7576040519150601f19603f3d011682016040523d82523d5f602084013e6109dc565b606091505b5080515f03610a0957604051633250574960e11b81526001600160a01b0385166004820152602401610359565b805160208201fd5b6001600160e01b03198116630a85bd0160e11b14610a4d57604051633250574960e11b81526001600160a01b0385166004820152602401610359565b505b5050505050565b6060610a61826106bd565b505f610a7760408051602081019091525f815290565b90505f815111610a955760405180602001604052805f815250610ac0565b80610a9f84610c8d565b604051602001610ab09291906111a5565b6040516020818303038152906040525b9392505050565b610330828260405180602001604052805f815250610d1d565b5f828152600660205260409020610af782826112a7565b506040518281527ff8e1a15aba9398e019f0b49df1a4fde98ee17ae345cb5f6b5e2c27f5033e8ce79060200161041d565b8080610b3c57506001600160a01b03821615155b15610bfd575f610b4b846106bd565b90506001600160a01b03831615801590610b775750826001600160a01b0316816001600160a01b031614155b8015610b8a5750610b8881846105d4565b155b15610bb35760405163a9fbf51f60e01b81526001600160a01b0384166004820152602401610359565b8115610bfb5783856001600160a01b0316826001600160a01b03167f8c5be1e5ebec7d5bd14f71427d1e84f3dd0314c0f7b2291e5b200ac8c7c3b92560405160405180910390a45b505b50505f90815260046020526040902080546001600160a01b0319166001600160a01b0392909216919091179055565b5f6001600160a01b038316158015906105cc5750826001600160a01b0316846001600160a01b03161480610c655750610c6584846105d4565b806105cc5750505f908152600460205260409020546001600160a01b03908116911614919050565b60605f610c9983610d34565b60010190505f8167ffffffffffffffff811115610cb857610cb8610fc5565b6040519080825280601f01601f191660200182016040528015610ce2576020820181803683370190505b5090508181016020015b5f19016f181899199a1a9b1b9c1cb0b131b232b360811b600a86061a8153600a8504945084610cec57509392505050565b610d278383610e0b565b610443335f85858561092e565b5f8072184f03e93ff9f4daa797ed6e38ed64bf6a1f0160401b8310610d725772184f03e93ff9f4daa797ed6e38ed64bf6a1f0160401b830492506040015b6d04ee2d6d415b85acef81000000008310610d9e576d04ee2d6d415b85acef8100000000830492506020015b662386f26fc100008310610dbc57662386f26fc10000830492506010015b6305f5e1008310610dd4576305f5e100830492506008015b6127108310610de857612710830492506004015b60648310610dfa576064830492506002015b600a83106102695760010192915050565b6001600160a01b038216610e3457604051633250574960e11b81525f6004820152602401610359565b5f610e4083835f610702565b90506001600160a01b03811615610443576040516339e3563760e11b81525f6004820152602401610359565b6001600160e01b031981168114610e81575f5ffd5b50565b5f60208284031215610e94575f5ffd5b8135610ac081610e6c565b5f81518084528060208401602086015e5f602082860101526020601f19601f83011685010191505092915050565b602081525f610ac06020830184610e9f565b5f60208284031215610eef575f5ffd5b5035919050565b80356001600160a01b0381168114610f0c575f5ffd5b919050565b5f5f60408385031215610f22575f5ffd5b610f2b83610ef6565b946020939093013593505050565b5f5f5f60608486031215610f4b575f5ffd5b610f5484610ef6565b9250610f6260208501610ef6565b929592945050506040919091013590565b5f60208284031215610f83575f5ffd5b610ac082610ef6565b5f5f60408385031215610f9d575f5ffd5b610fa683610ef6565b915060208301358015158114610fba575f5ffd5b809150509250929050565b634e487b7160e01b5f52604160045260245ffd5b5f5f67ffffffffffffffff841115610ff357610ff3610fc5565b50604051601f19601f85018116603f0116810181811067ffffffffffffffff8211171561102257611022610fc5565b604052838152905080828401851015611039575f5ffd5b838360208301375f60208583010152509392505050565b5f5f5f5f60808587031215611063575f5ffd5b61106c85610ef6565b935061107a60208601610ef6565b925060408501359150606085013567ffffffffffffffff81111561109c575f5ffd5b8501601f810187136110ac575f5ffd5b6110bb87823560208401610fd9565b91505092959194509250565b5f5f604083850312156110d8575f5ffd5b6110e183610ef6565b91506110ef60208401610ef6565b90509250929050565b5f5f60408385031215611109575f5ffd5b61111283610ef6565b9150602083013567ffffffffffffffff81111561112d575f5ffd5b8301601f8101851361113d575f5ffd5b61114c85823560208401610fd9565b9150509250929050565b600181811c9082168061116a57607f821691505b60208210810361118857634e487b7160e01b5f52602260045260245ffd5b50919050565b5f81518060208401855e5f93019283525090919050565b5f6105cc6111b3838661118e565b8461118e565b60018060a01b0384168152826020820152606060408201525f6111df6060830184610e9f565b95945050505050565b5f6001820161120557634e487b7160e01b5f52601160045260245ffd5b5060010190565b6001600160a01b03858116825284166020820152604081018390526080606082018190525f9061123e90830184610e9f565b9695505050505050565b5f60208284031215611258575f5ffd5b8151610ac081610e6c565b601f82111561044357805f5260205f20601f840160051c810160208510156112885750805b601f840160051c820191505b81811015610a4f575f8155600101611294565b815167ffffffffffffffff8111156112c1576112c1610fc5565b6112d5816112cf8454611156565b84611263565b6020601f821160018114611307575f83156112f05750848201515b5f19600385901b1c1916600184901b178455610a4f565b5f84815260208120601f198516915b828110156113365787850151825560209485019460019092019101611316565b508482101561135357868401515f19600387901b60f8161c191681555b50505050600190811b0190555056fea2646970667358221220bd5f54a6639bdfb71946f9f0bae0edd2f9bfecb2fb8d2af273804b7eb427cca664736f6c634300081e0033",
  "linkReferences": {},
  "deployedLinkReferences": {},
  "immutableReferences": {},
  "inputSourceName": "project/contracts/NFT.sol",
  "buildInfoId": "solc-0_8_30-fde113d3a7e467ba23ea7f934836ebf98735ed88"
}